{
  "contractName": "Compound",
  "abi": [
    {
      "constant": true,
      "inputs": [],
      "name": "comptroller",
      "outputs": [
        {
          "name": "",
          "type": "address"
        }
      ],
      "payable": false,
      "stateMutability": "view",
      "type": "function"
    },
    {
      "inputs": [
        {
          "name": "_comptroller",
          "type": "address"
        }
      ],
      "payable": false,
      "stateMutability": "nonpayable",
      "type": "constructor"
    },
    {
      "constant": true,
      "inputs": [
        {
          "name": "cTokenAddress",
          "type": "address"
        }
      ],
      "name": "getcTokenBalance",
      "outputs": [
        {
          "name": "",
          "type": "uint256"
        }
      ],
      "payable": false,
      "stateMutability": "view",
      "type": "function"
    },
    {
      "constant": false,
      "inputs": [
        {
          "name": "cTokenAddress",
          "type": "address"
        }
      ],
      "name": "getBorrowBalance",
      "outputs": [
        {
          "name": "",
          "type": "uint256"
        }
      ],
      "payable": false,
      "stateMutability": "nonpayable",
      "type": "function"
    }
  ],
  "bytecode": "0x608060405234801561001057600080fd5b506040516020806103a68339810180604052602081101561003057600080fd5b8101908080519060200190929190505050806000806101000a81548173ffffffffffffffffffffffffffffffffffffffff021916908373ffffffffffffffffffffffffffffffffffffffff16021790555050610315806100916000396000f3fe608060405234801561001057600080fd5b50600436106100415760003560e01c80631031cb5f146100465780635fe3b5671461009e5780637d6af079146100e8575b600080fd5b6100886004803603602081101561005c57600080fd5b81019080803573ffffffffffffffffffffffffffffffffffffffff169060200190929190505050610140565b6040518082815260200191505060405180910390f35b6100a6610201565b604051808273ffffffffffffffffffffffffffffffffffffffff1673ffffffffffffffffffffffffffffffffffffffff16815260200191505060405180910390f35b61012a600480360360208110156100fe57600080fd5b81019080803573ffffffffffffffffffffffffffffffffffffffff169060200190929190505050610226565b6040518082815260200191505060405180910390f35b60008173ffffffffffffffffffffffffffffffffffffffff166370a08231306040518263ffffffff1660e01b8152600401808273ffffffffffffffffffffffffffffffffffffffff1673ffffffffffffffffffffffffffffffffffffffff16815260200191505060206040518083038186803b1580156101bf57600080fd5b505afa1580156101d3573d6000803e3d6000fd5b505050506040513d60208110156101e957600080fd5b81019080805190602001909291905050509050919050565b6000809054906101000a900473ffffffffffffffffffffffffffffffffffffffff1681565b60008173ffffffffffffffffffffffffffffffffffffffff166317bfdfbc306040518263ffffffff1660e01b8152600401808273ffffffffffffffffffffffffffffffffffffffff1673ffffffffffffffffffffffffffffffffffffffff168152602001915050602060405180830381600087803b1580156102a757600080fd5b505af11580156102bb573d6000803e3d6000fd5b505050506040513d60208110156102d157600080fd5b8101908080519060200190929190505050905091905056fea165627a7a72305820660f44802070ec32991a19aa44d44de6fcef5e143e6c8a4976f149da8476f85b0029",
  "source": "pragma solidity ^0.5.7;\r\n\r\nimport \"@openzeppelin/contracts/token/ERC20/IERC20.sol\";\r\nimport \"./CTokenInterface.sol\";\r\nimport \"./ComptrollerInterface.sol\";\r\n\r\ncontract Compound {\r\n    ComptrollerInterface public comptroller;\r\n\r\n    constructor(address _comptroller) public {\r\n        comptroller = ComptrollerInterface(_comptroller);\r\n    }\r\n\r\n    function supply(address cTokenAddress, uint256 underlyingAmount) internal {\r\n        CTokenInterface cToken = CTokenInterface(cTokenAddress);\r\n        address underlyingAddress = cToken.underlying();\r\n        IERC20(underlyingAddress).approve(cTokenAddress, underlyingAmount);\r\n        uint256 result = cToken.mint(underlyingAmount);\r\n        require(\r\n            result == 0,\r\n            \"cToken#mint() failed. See Compound ErrorReporter.sol for details\"\r\n        );\r\n    }\r\n\r\n    function redeem(address cTokenAddress, uint256 cTokenAmount) internal {\r\n        CTokenInterface cToken = CTokenInterface(cTokenAddress);\r\n        uint256 result = cToken.redeem(cTokenAmount);\r\n        require(\r\n            result == 0,\r\n            \"cToken#redeem() failed. See Compound ErrorReporter.sol for more details\"\r\n        );\r\n    }\r\n\r\n    function enterMarket(address cTokenAddress) internal {\r\n        address[] memory markets = new address[](1);\r\n        markets[0] = cTokenAddress;\r\n        uint256[] memory results = comptroller.enterMarkets(markets);\r\n        require(\r\n            results[0] == 0,\r\n            \"comptroller#enterMarket() failed. See Compound ErrorReporter.sol for details\"\r\n        );\r\n    }\r\n\r\n    function borrow(address cTokenAddress, uint256 borrowAmount) internal {\r\n        CTokenInterface cToken = CTokenInterface(cTokenAddress);\r\n        uint256 result = cToken.borrow(borrowAmount);\r\n        require(\r\n            result == 0,\r\n            \"cToken#borrow() failed. See Compound ErrorReporter.sol for details\"\r\n        );\r\n    }\r\n\r\n    function repayBorrow(address cTokenAddress, uint256 underlyingAmount)\r\n        internal\r\n    {\r\n        CTokenInterface cToken = CTokenInterface(cTokenAddress);\r\n        address underlyingAddress = cToken.underlying();\r\n        IERC20(underlyingAmount).approve(cTokenAddress, underlyingAmount);\r\n        uint256 result = cToken.repayBorrow(underlyingAmount);\r\n        require(result == 0, \"cToken#borrow() failed\");\r\n    }\r\n\r\n    function claimComp() internal {\r\n        comptroller.claimComp(address(this));\r\n    }\r\n\r\n    function getCompAddress() internal view returns (address) {\r\n        return comptroller.getCompAddress();\r\n    }\r\n\r\n    function getcTokenBalance(address cTokenAddress)\r\n        public\r\n        view\r\n        returns (uint256)\r\n    {\r\n        return CTokenInterface(cTokenAddress).balanceOf(address(this));\r\n    }\r\n\r\n    function getBorrowBalance(address cTokenAddress) public returns (uint256) {\r\n        return\r\n            CTokenInterface(cTokenAddress).borrowBalanceCurrent(address(this));\r\n    }\r\n}\r\n",
  "sourcePath": "D:/ETH/yieldfarming-on-compound/contracts/Compound.sol",
  "compiler": {
    "name": "solc",
    "version": "0.5.7+commit.6da8b019.Emscripten.clang"
  },
  "schemaVersion": "3.3.4",
  "updatedAt": "2021-03-12T19:43:34.791Z",
  "devdoc": {
    "methods": {}
  },
  "userdoc": {
    "methods": {}
  }
}