{
  "contractName": "YieldFarmer",
  "abi": [
    {
      "constant": true,
      "inputs": [
        {
          "name": "cTokenAddress",
          "type": "address"
        }
      ],
      "name": "getcTokenBalance",
      "outputs": [
        {
          "name": "",
          "type": "uint256"
        }
      ],
      "payable": false,
      "stateMutability": "view",
      "type": "function"
    },
    {
      "constant": true,
      "inputs": [],
      "name": "comptroller",
      "outputs": [
        {
          "name": "",
          "type": "address"
        }
      ],
      "payable": false,
      "stateMutability": "view",
      "type": "function"
    },
    {
      "constant": false,
      "inputs": [
        {
          "name": "cTokenAddress",
          "type": "address"
        }
      ],
      "name": "getBorrowBalance",
      "outputs": [
        {
          "name": "",
          "type": "uint256"
        }
      ],
      "payable": false,
      "stateMutability": "nonpayable",
      "type": "function"
    },
    {
      "constant": true,
      "inputs": [],
      "name": "owner",
      "outputs": [
        {
          "name": "",
          "type": "address"
        }
      ],
      "payable": false,
      "stateMutability": "view",
      "type": "function"
    },
    {
      "inputs": [
        {
          "name": "_comptroller",
          "type": "address"
        }
      ],
      "payable": false,
      "stateMutability": "nonpayable",
      "type": "constructor"
    },
    {
      "constant": false,
      "inputs": [
        {
          "name": "_solo",
          "type": "address"
        },
        {
          "name": "_token",
          "type": "address"
        },
        {
          "name": "_cToken",
          "type": "address"
        },
        {
          "name": "_amountProvided",
          "type": "uint256"
        },
        {
          "name": "_amountBorrowed",
          "type": "uint256"
        }
      ],
      "name": "openPosition",
      "outputs": [],
      "payable": false,
      "stateMutability": "nonpayable",
      "type": "function"
    },
    {
      "constant": false,
      "inputs": [
        {
          "name": "_solo",
          "type": "address"
        },
        {
          "name": "_token",
          "type": "address"
        },
        {
          "name": "_cToken",
          "type": "address"
        }
      ],
      "name": "closePosition",
      "outputs": [],
      "payable": false,
      "stateMutability": "nonpayable",
      "type": "function"
    },
    {
      "constant": false,
      "inputs": [
        {
          "name": "sender",
          "type": "address"
        },
        {
          "components": [
            {
              "name": "owner",
              "type": "address"
            },
            {
              "name": "number",
              "type": "uint256"
            }
          ],
          "name": "account",
          "type": "tuple"
        },
        {
          "name": "data",
          "type": "bytes"
        }
      ],
      "name": "callFunction",
      "outputs": [],
      "payable": false,
      "stateMutability": "nonpayable",
      "type": "function"
    }
  ],
  "bytecode": "0x60806040523480156200001157600080fd5b5060405160208062002c338339810180604052620000339190810190620000d3565b80806000806101000a81548173ffffffffffffffffffffffffffffffffffffffff021916908373ffffffffffffffffffffffffffffffffffffffff1602179055505033600160006101000a81548173ffffffffffffffffffffffffffffffffffffffff021916908373ffffffffffffffffffffffffffffffffffffffff1602179055505062000133565b6000620000cb8251620000ff565b905092915050565b600060208284031215620000e657600080fd5b6000620000f684828501620000bd565b91505092915050565b60006200010c8262000113565b9050919050565b600073ffffffffffffffffffffffffffffffffffffffff82169050919050565b612af080620001436000396000f3fe608060405234801561001057600080fd5b506004361061007d5760003560e01c80638b4187131161005b5780638b418713146101005780638da5cb5b1461011c578063d2ceba1f1461013a578063d9a9304f146101565761007d565b80631031cb5f146100825780635fe3b567146100b25780637d6af079146100d0575b600080fd5b61009c60048036036100979190810190611b5a565b610172565b6040516100a9919061274d565b60405180910390f35b6100ba610204565b6040516100c791906125f7565b60405180910390f35b6100ea60048036036100e59190810190611b5a565b610229565b6040516100f7919061274d565b60405180910390f35b61011a60048036036101159190810190611c72565b6102bd565b005b610124610373565b60405161013191906124fa565b60405180910390f35b610154600480360361014f9190810190611bfb565b610399565b005b610170600480360361016b9190810190611bac565b610442565b005b60008173ffffffffffffffffffffffffffffffffffffffff166370a08231306040518263ffffffff1660e01b81526004016101ad91906124fa565b60206040518083038186803b1580156101c557600080fd5b505afa1580156101d9573d6000803e3d6000fd5b505050506040513d601f19601f820116820180604052506101fd9190810190611d6c565b9050919050565b6000809054906101000a900473ffffffffffffffffffffffffffffffffffffffff1681565b60008173ffffffffffffffffffffffffffffffffffffffff166317bfdfbc306040518263ffffffff1660e01b815260040161026491906124fa565b602060405180830381600087803b15801561027e57600080fd5b505af1158015610292573d6000803e3d6000fd5b505050506040513d601f19601f820116820180604052506102b69190810190611d6c565b9050919050565b6102c5611759565b818060200190516102d99190810190611d43565b9050600060018111156102e857fe5b816040015160018111156102f857fe5b141561033a57610316816020015182608001518360600151016107df565b61032381602001516109cd565b61033581602001518260800151610b5b565b61036d565b61034c81602001518260800151610c38565b600061035b8260200151610172565b905061036b826020015182610e26565b505b50505050565b600160009054906101000a900473ffffffffffffffffffffffffffffffffffffffff1681565b600160009054906101000a900473ffffffffffffffffffffffffffffffffffffffff1673ffffffffffffffffffffffffffffffffffffffff163373ffffffffffffffffffffffffffffffffffffffff1614610429576040517f08c379a000000000000000000000000000000000000000000000000000000000815260040161042090612612565b60405180910390fd5b61043b85858560006002870386610f03565b5050505050565b600160009054906101000a900473ffffffffffffffffffffffffffffffffffffffff1673ffffffffffffffffffffffffffffffffffffffff163373ffffffffffffffffffffffffffffffffffffffff16146104d2576040517f08c379a00000000000000000000000000000000000000000000000000000000081526004016104c9906126d2565b60405180910390fd5b8173ffffffffffffffffffffffffffffffffffffffff166323b872dd333060026040518463ffffffff1660e01b815260040161051093929190612515565b602060405180830381600087803b15801561052a57600080fd5b505af115801561053e573d6000803e3d6000fd5b505050506040513d601f19601f820116820180604052506105629190810190611d1a565b5061056b6111ac565b600061057682610229565b90506105888484846001600086610f03565b600061059261123a565b9050600081905060008173ffffffffffffffffffffffffffffffffffffffff166370a08231306040518263ffffffff1660e01b81526004016105d491906124fa565b60206040518083038186803b1580156105ec57600080fd5b505afa158015610600573d6000803e3d6000fd5b505050506040513d601f19601f820116820180604052506106249190810190611d6c565b90508173ffffffffffffffffffffffffffffffffffffffff1663a9059cbb33836040518363ffffffff1660e01b815260040161066192919061254c565b602060405180830381600087803b15801561067b57600080fd5b505af115801561068f573d6000803e3d6000fd5b505050506040513d601f19601f820116820180604052506106b39190810190611d1a565b50600086905060008173ffffffffffffffffffffffffffffffffffffffff166370a08231306040518263ffffffff1660e01b81526004016106f491906124fa565b60206040518083038186803b15801561070c57600080fd5b505afa158015610720573d6000803e3d6000fd5b505050506040513d601f19601f820116820180604052506107449190810190611d6c565b90508173ffffffffffffffffffffffffffffffffffffffff1663a9059cbb33836040518363ffffffff1660e01b815260040161078192919061254c565b602060405180830381600087803b15801561079b57600080fd5b505af11580156107af573d6000803e3d6000fd5b505050506040513d601f19601f820116820180604052506107d39190810190611d1a565b50505050505050505050565b600082905060008173ffffffffffffffffffffffffffffffffffffffff16636f307dc36040518163ffffffff1660e01b815260040160206040518083038186803b15801561082c57600080fd5b505afa158015610840573d6000803e3d6000fd5b505050506040513d601f19601f820116820180604052506108649190810190611b83565b90508073ffffffffffffffffffffffffffffffffffffffff1663095ea7b385856040518363ffffffff1660e01b81526004016108a1929190612575565b602060405180830381600087803b1580156108bb57600080fd5b505af11580156108cf573d6000803e3d6000fd5b505050506040513d601f19601f820116820180604052506108f39190810190611d1a565b5060008273ffffffffffffffffffffffffffffffffffffffff1663a0712d68856040518263ffffffff1660e01b815260040161092f919061274d565b602060405180830381600087803b15801561094957600080fd5b505af115801561095d573d6000803e3d6000fd5b505050506040513d601f19601f820116820180604052506109819190810190611d6c565b9050600081146109c6576040517f08c379a00000000000000000000000000000000000000000000000000000000081526004016109bd90612692565b60405180910390fd5b5050505050565b606060016040519080825280602002602001820160405280156109ff5781602001602082028038833980820191505090505b5090508181600081518110610a1057fe5b602002602001019073ffffffffffffffffffffffffffffffffffffffff16908173ffffffffffffffffffffffffffffffffffffffff168152505060606000809054906101000a900473ffffffffffffffffffffffffffffffffffffffff1673ffffffffffffffffffffffffffffffffffffffff1663c2998238836040518263ffffffff1660e01b8152600401610aa6919061259e565b600060405180830381600087803b158015610ac057600080fd5b505af1158015610ad4573d6000803e3d6000fd5b505050506040513d6000823e3d601f19601f82011682018060405250610afd9190810190611cd9565b9050600081600081518110610b0e57fe5b602002602001015114610b56576040517f08c379a0000000000000000000000000000000000000000000000000000000008152600401610b4d90612632565b60405180910390fd5b505050565b600082905060008173ffffffffffffffffffffffffffffffffffffffff1663c5ebeaec846040518263ffffffff1660e01b8152600401610b9b919061274d565b602060405180830381600087803b158015610bb557600080fd5b505af1158015610bc9573d6000803e3d6000fd5b505050506040513d601f19601f82011682018060405250610bed9190810190611d6c565b905060008114610c32576040517f08c379a0000000000000000000000000000000000000000000000000000000008152600401610c2990612672565b60405180910390fd5b50505050565b600082905060008173ffffffffffffffffffffffffffffffffffffffff16636f307dc36040518163ffffffff1660e01b815260040160206040518083038186803b158015610c8557600080fd5b505afa158015610c99573d6000803e3d6000fd5b505050506040513d601f19601f82011682018060405250610cbd9190810190611b83565b90508273ffffffffffffffffffffffffffffffffffffffff1663095ea7b385856040518363ffffffff1660e01b8152600401610cfa929190612575565b602060405180830381600087803b158015610d1457600080fd5b505af1158015610d28573d6000803e3d6000fd5b505050506040513d601f19601f82011682018060405250610d4c9190810190611d1a565b5060008273ffffffffffffffffffffffffffffffffffffffff16630e752702856040518263ffffffff1660e01b8152600401610d88919061274d565b602060405180830381600087803b158015610da257600080fd5b505af1158015610db6573d6000803e3d6000fd5b505050506040513d601f19601f82011682018060405250610dda9190810190611d6c565b905060008114610e1f576040517f08c379a0000000000000000000000000000000000000000000000000000000008152600401610e1690612712565b60405180910390fd5b5050505050565b600082905060008173ffffffffffffffffffffffffffffffffffffffff1663db006a75846040518263ffffffff1660e01b8152600401610e66919061274d565b602060405180830381600087803b158015610e8057600080fd5b505af1158015610e94573d6000803e3d6000fd5b505050506040513d601f19601f82011682018060405250610eb89190810190611d6c565b905060008114610efd576040517f08c379a0000000000000000000000000000000000000000000000000000000008152600401610ef4906126b2565b60405180910390fd5b50505050565b60008690506000610f1488886112e0565b90506000610f2184611492565b90508773ffffffffffffffffffffffffffffffffffffffff1663095ea7b38a836040518363ffffffff1660e01b8152600401610f5e929190612575565b602060405180830381600087803b158015610f7857600080fd5b505af1158015610f8c573d6000803e3d6000fd5b505050506040513d601f19601f82011682018060405250610fb09190810190611d1a565b5060606003604051908082528060200260200182016040528015610fee57816020015b610fdb6117bf565b815260200190600190039081610fd35790505b509050610ffb83866114af565b8160008151811061100857fe5b60200260200101819052506110986040518060a001604052808b73ffffffffffffffffffffffffffffffffffffffff1681526020018a73ffffffffffffffffffffffffffffffffffffffff16815260200189600181111561106557fe5b8152602001888152602001878152506040516020016110849190612732565b604051602081830303815290604052611568565b816001815181106110a557fe5b60200260200101819052506110ba8383611612565b816002815181106110c757fe5b60200260200101819052506060600160405190808252806020026020018201604052801561110f57816020015b6110fc61182b565b8152602001906001900390816110f45790505b50905061111a6116cb565b8160008151811061112757fe5b60200260200101819052508473ffffffffffffffffffffffffffffffffffffffff1663a67a6a4582846040518363ffffffff1660e01b815260040161116d9291906125c0565b600060405180830381600087803b15801561118757600080fd5b505af115801561119b573d6000803e3d6000fd5b505050505050505050505050505050565b6000809054906101000a900473ffffffffffffffffffffffffffffffffffffffff1673ffffffffffffffffffffffffffffffffffffffff1663e9af0292306040518263ffffffff1660e01b815260040161120691906124fa565b600060405180830381600087803b15801561122057600080fd5b505af1158015611234573d6000803e3d6000fd5b50505050565b60008060009054906101000a900473ffffffffffffffffffffffffffffffffffffffff1673ffffffffffffffffffffffffffffffffffffffff16639d1b5a0a6040518163ffffffff1660e01b815260040160206040518083038186803b1580156112a357600080fd5b505afa1580156112b7573d6000803e3d6000fd5b505050506040513d601f19601f820116820180604052506112db9190810190611b83565b905090565b60008083905060008173ffffffffffffffffffffffffffffffffffffffff1663295c39a56040518163ffffffff1660e01b815260040160206040518083038186803b15801561132e57600080fd5b505afa158015611342573d6000803e3d6000fd5b505050506040513d601f19601f820116820180604052506113669190810190611d6c565b9050600080600090505b82811015611450578373ffffffffffffffffffffffffffffffffffffffff1663062bd3e9826040518263ffffffff1660e01b81526004016113b1919061274d565b60206040518083038186803b1580156113c957600080fd5b505afa1580156113dd573d6000803e3d6000fd5b505050506040513d601f19601f820116820180604052506114019190810190611b83565b91508573ffffffffffffffffffffffffffffffffffffffff168273ffffffffffffffffffffffffffffffffffffffff161415611443578094505050505061148c565b8080600101915050611370565b506040517f08c379a0000000000000000000000000000000000000000000000000000000008152600401611483906126f2565b60405180910390fd5b92915050565b60006114a860028361170490919063ffffffff16565b9050919050565b6114b761185b565b604051806101000160405280600160088111156114d057fe5b8152602001600081526020016040518060800160405280600015158152602001600060018111156114fd57fe5b81526020016000600181111561150f57fe5b8152602001858152508152602001848152602001600081526020013073ffffffffffffffffffffffffffffffffffffffff1681526020016000815260200160405180602001604052806000815250815250905092915050565b61157061185b565b60405180610100016040528060088081111561158857fe5b8152602001600081526020016040518060800160405280600015158152602001600060018111156115b557fe5b8152602001600060018111156115c757fe5b81526020016000815250815260200160008152602001600081526020013073ffffffffffffffffffffffffffffffffffffffff16815260200160008152602001838152509050919050565b61161a61185b565b6040518061010001604052806000600881111561163357fe5b81526020016000815260200160405180608001604052806001151581526020016000600181111561166057fe5b81526020016000600181111561167257fe5b8152602001858152508152602001848152602001600081526020013073ffffffffffffffffffffffffffffffffffffffff1681526020016000815260200160405180602001604052806000815250815250905092915050565b6116d36118c7565b60405180604001604052803073ffffffffffffffffffffffffffffffffffffffff1681526020016001815250905090565b60008082840190508381101561174f576040517f08c379a000000000000000000000000000000000000000000000000000000000815260040161174690612652565b60405180910390fd5b8091505092915050565b6040518060a00160405280600073ffffffffffffffffffffffffffffffffffffffff168152602001600073ffffffffffffffffffffffffffffffffffffffff168152602001600060018111156117ab57fe5b815260200160008152602001600081525090565b604051806101600160405280600060088111156117d857fe5b8152602001600081526020016117ec6118f7565b81526020016000815260200160008152602001600073ffffffffffffffffffffffffffffffffffffffff16815260200160008152602001606081525090565b6040518060400160405280600073ffffffffffffffffffffffffffffffffffffffff168152602001600081525090565b6040518061016001604052806000600881111561187457fe5b8152602001600081526020016118886118f7565b81526020016000815260200160008152602001600073ffffffffffffffffffffffffffffffffffffffff16815260200160008152602001606081525090565b6040518060400160405280600073ffffffffffffffffffffffffffffffffffffffff168152602001600081525090565b60405180608001604052806000151581526020016000600181111561191857fe5b81526020016000600181111561192a57fe5b8152602001600081525090565b60006119438235612950565b905092915050565b60006119578251612950565b905092915050565b600082601f83011261197057600080fd5b815161198361197e82612795565b612768565b915081818352602084019350602081019050838560208402820111156119a857600080fd5b60005b838110156119d857816119be8882611b46565b8452602084019350602083019250506001810190506119ab565b5050505092915050565b60006119ee8251612962565b905092915050565b600082601f830112611a0757600080fd5b8135611a1a611a15826127bd565b612768565b91508082526020830160208301858383011115611a3657600080fd5b611a41838284612a63565b50505092915050565b6000611a56825161296e565b905092915050565b600060408284031215611a7057600080fd5b611a7a6040612768565b90506000611a8a84828501611937565b6000830152506020611a9e84828501611b32565b60208301525092915050565b600060a08284031215611abc57600080fd5b611ac660a0612768565b90506000611ad68482850161194b565b6000830152506020611aea8482850161194b565b6020830152506040611afe84828501611a4a565b6040830152506060611b1284828501611b46565b6060830152506080611b2684828501611b46565b60808301525092915050565b6000611b3e82356129a5565b905092915050565b6000611b5282516129a5565b905092915050565b600060208284031215611b6c57600080fd5b6000611b7a84828501611937565b91505092915050565b600060208284031215611b9557600080fd5b6000611ba38482850161194b565b91505092915050565b600080600060608486031215611bc157600080fd5b6000611bcf86828701611937565b9350506020611be086828701611937565b9250506040611bf186828701611937565b9150509250925092565b600080600080600060a08688031215611c1357600080fd5b6000611c2188828901611937565b9550506020611c3288828901611937565b9450506040611c4388828901611937565b9350506060611c5488828901611b32565b9250506080611c6588828901611b32565b9150509295509295909350565b600080600060808486031215611c8757600080fd5b6000611c9586828701611937565b9350506020611ca686828701611a5e565b925050606084013567ffffffffffffffff811115611cc357600080fd5b611ccf868287016119f6565b9150509250925092565b600060208284031215611ceb57600080fd5b600082015167ffffffffffffffff811115611d0557600080fd5b611d118482850161195f565b91505092915050565b600060208284031215611d2c57600080fd5b6000611d3a848285016119e2565b91505092915050565b600060a08284031215611d5557600080fd5b6000611d6384828501611aaa565b91505092915050565b600060208284031215611d7e57600080fd5b6000611d8c84828501611b46565b91505092915050565b6000611da18383611de8565b60208301905092915050565b6000611db9838361233d565b905092915050565b6000611dcd8383612445565b60408301905092915050565b611de2816129af565b82525050565b611df1816128b8565b82525050565b611e00816128b8565b82525050565b6000611e1182612810565b611e1b8185612863565b9350611e26836127e9565b60005b82811015611e5457611e3c868351611d95565b9550611e478261283c565b9150600181019050611e29565b50849250505092915050565b6000611e6b8261281b565b611e758185612874565b935083602082028501611e87856127f6565b60005b84811015611ec0578383038852611ea2838351611dad565b9250611ead82612849565b9150602088019750600181019050611e8a565b508196508694505050505092915050565b6000611edc82612826565b611ee68185612885565b9350611ef183612803565b60005b82811015611f1f57611f07868351611dc1565b9550611f1282612856565b9150600181019050611ef4565b50849250505092915050565b611f34816128ca565b82525050565b6000611f4582612831565b611f4f8185612896565b9350611f5f818560208601612a72565b611f6881612aa5565b840191505092915050565b611f7c816129c1565b82525050565b611f8b816129e5565b82525050565b611f9a816129f7565b82525050565b611fa981612a09565b82525050565b611fb881612a1b565b82525050565b611fc781612a2d565b82525050565b6000611fda600a836128a7565b91507f6f6e6c79204f776e6572000000000000000000000000000000000000000000006000830152602082019050919050565b600061201a604c836128a7565b91507f636f6d7074726f6c6c657223656e7465724d61726b65742829206661696c656460008301527f2e2053656520436f6d706f756e64204572726f725265706f727465722e736f6c60208301527f20666f722064657461696c7300000000000000000000000000000000000000006040830152606082019050919050565b60006120a6601b836128a7565b91507f536166654d6174683a206164646974696f6e206f766572666c6f7700000000006000830152602082019050919050565b60006120e66042836128a7565b91507f63546f6b656e23626f72726f772829206661696c65642e2053656520436f6d7060008301527f6f756e64204572726f725265706f727465722e736f6c20666f7220646574616960208301527f6c730000000000000000000000000000000000000000000000000000000000006040830152606082019050919050565b60006121726040836128a7565b91507f63546f6b656e236d696e742829206661696c65642e2053656520436f6d706f7560008301527f6e64204572726f725265706f727465722e736f6c20666f722064657461696c736020830152604082019050919050565b60006121d86047836128a7565b91507f63546f6b656e2372656465656d2829206661696c65642e2053656520436f6d7060008301527f6f756e64204572726f725265706f727465722e736f6c20666f72206d6f72652060208301527f64657461696c73000000000000000000000000000000000000000000000000006040830152606082019050919050565b6000612264600a836128a7565b91507f6f6e6c792041646d696e000000000000000000000000000000000000000000006000830152602082019050919050565b60006122a46024836128a7565b91507f4e6f206d61726b6574496420666f756e6420666f722070726f7669646564207460008301527f6f6b656e000000000000000000000000000000000000000000000000000000006020830152604082019050919050565b600061230a6016836128a7565b91507f63546f6b656e23626f72726f772829206661696c6564000000000000000000006000830152602082019050919050565b6000610160830160008301516123566000860182611f82565b50602083015161236960208601826124dc565b50604083015161237c60408601826123f0565b50606083015161238f60c08601826124dc565b5060808301516123a260e08601826124dc565b5060a08301516123b6610100860182611de8565b5060c08301516123ca6101208601826124dc565b5060e08301518482036101408601526123e38282611f3a565b9150508091505092915050565b6080820160008201516124066000850182611f2b565b5060208201516124196020850182611f91565b50604082015161242c6040850182611fa0565b50606082015161243f60608501826124dc565b50505050565b60408201600082015161245b6000850182611de8565b50602082015161246e60208501826124dc565b50505050565b60a08201600082015161248a6000850182611de8565b50602082015161249d6020850182611de8565b5060408201516124b06040850182611faf565b5060608201516124c360608501826124dc565b5060808201516124d660808501826124dc565b50505050565b6124e581612946565b82525050565b6124f481612946565b82525050565b600060208201905061250f6000830184611df7565b92915050565b600060608201905061252a6000830186611dd9565b6125376020830185611df7565b6125446040830184611fbe565b949350505050565b60006040820190506125616000830185611dd9565b61256e60208301846124eb565b9392505050565b600060408201905061258a6000830185611df7565b61259760208301846124eb565b9392505050565b600060208201905081810360008301526125b88184611e06565b905092915050565b600060408201905081810360008301526125da8185611ed1565b905081810360208301526125ee8184611e60565b90509392505050565b600060208201905061260c6000830184611f73565b92915050565b6000602082019050818103600083015261262b81611fcd565b9050919050565b6000602082019050818103600083015261264b8161200d565b9050919050565b6000602082019050818103600083015261266b81612099565b9050919050565b6000602082019050818103600083015261268b816120d9565b9050919050565b600060208201905081810360008301526126ab81612165565b9050919050565b600060208201905081810360008301526126cb816121cb565b9050919050565b600060208201905081810360008301526126eb81612257565b9050919050565b6000602082019050818103600083015261270b81612297565b9050919050565b6000602082019050818103600083015261272b816122fd565b9050919050565b600060a0820190506127476000830184612474565b92915050565b600060208201905061276260008301846124eb565b92915050565b6000604051905081810181811067ffffffffffffffff8211171561278b57600080fd5b8060405250919050565b600067ffffffffffffffff8211156127ac57600080fd5b602082029050602081019050919050565b600067ffffffffffffffff8211156127d457600080fd5b601f19601f8301169050602081019050919050565b6000602082019050919050565b6000602082019050919050565b6000602082019050919050565b600081519050919050565b600081519050919050565b600081519050919050565b600081519050919050565b6000602082019050919050565b6000602082019050919050565b6000602082019050919050565b600082825260208201905092915050565b600082825260208201905092915050565b600082825260208201905092915050565b600082825260208201905092915050565b600082825260208201905092915050565b60006128c382612926565b9050919050565b60008115159050919050565b6000600982106128e257fe5b819050919050565b6000600282106128f657fe5b819050919050565b60006002821061290a57fe5b819050919050565b60006002821061291e57fe5b819050919050565b600073ffffffffffffffffffffffffffffffffffffffff82169050919050565b6000819050919050565b600061295b82612985565b9050919050565b60008115159050919050565b60006002821061297d57600080fd5b819050919050565b600073ffffffffffffffffffffffffffffffffffffffff82169050919050565b6000819050919050565b60006129ba82612a3f565b9050919050565b60006129cc826129d3565b9050919050565b60006129de82612926565b9050919050565b60006129f0826128d6565b9050919050565b6000612a02826128ea565b9050919050565b6000612a14826128fe565b9050919050565b6000612a2682612912565b9050919050565b6000612a3882612946565b9050919050565b6000612a4a82612a51565b9050919050565b6000612a5c82612926565b9050919050565b82818337600083830152505050565b60005b83811015612a90578082015181840152602081019050612a75565b83811115612a9f576000848401525b50505050565b6000601f19601f830116905091905056fea265627a7a7230582091cff25d33370e2d47b1704f534173b5b260c9fc91a49a3c01ec64ebcf3cfde06c6578706572696d656e74616cf50037",
  "source": "pragma solidity ^0.5.7;\r\npragma experimental ABIEncoderV2;\r\n\r\nimport \"@studydefi/money-legos/dydx/contracts/DydxFlashloanBase.sol\";\r\nimport \"@studydefi/money-legos/dydx/contracts/ICallee.sol\";\r\nimport \"@openzeppelin/contracts/token/ERC20/IERC20.sol\";\r\nimport \"./Compound.sol\";\r\n\r\ncontract YieldFarmer is ICallee, DydxFlashloanBase, Compound {\r\n    enum Direction {Deposit, Withdraw}\r\n    struct Operation {\r\n        address token;\r\n        address cToken;\r\n        Direction direction;\r\n        uint256 amountProvided;\r\n        uint256 amountBorrowed;\r\n    }\r\n    address public owner;\r\n\r\n    constructor(address _comptroller) public Compound(_comptroller) {\r\n        owner = msg.sender;\r\n    }\r\n\r\n    function openPosition(\r\n        address _solo,\r\n        address _token,\r\n        address _cToken,\r\n        uint256 _amountProvided,\r\n        uint256 _amountBorrowed\r\n    ) external {\r\n        require(msg.sender == owner, \"only Owner\");\r\n        _initiateFlashloan(\r\n            _solo,\r\n            _token,\r\n            _cToken,\r\n            Direction.Deposit,\r\n            _amountProvided - 2,\r\n            _amountBorrowed\r\n        );\r\n    }\r\n\r\n    function closePosition(\r\n        address _solo,\r\n        address _token,\r\n        address _cToken\r\n    ) external {\r\n        require(msg.sender == owner, \"only Admin\");\r\n        IERC20(_token).transferFrom(msg.sender, address(this), 2);\r\n        claimComp();\r\n        uint256 borrowBalance = getBorrowBalance(_cToken);\r\n        _initiateFlashloan(\r\n            _solo,\r\n            _token,\r\n            _cToken,\r\n            Direction.Withdraw,\r\n            0,\r\n            borrowBalance\r\n        );\r\n\r\n        //COMP\r\n        address compAddress = getCompAddress();\r\n        IERC20 comp = IERC20(compAddress);\r\n        uint256 compBalance = comp.balanceOf(address(this));\r\n        comp.transfer(msg.sender, compBalance);\r\n\r\n        //token\r\n        IERC20 token = IERC20(_token);\r\n        uint256 tokenBalance = token.balanceOf(address(this));\r\n        token.transfer(msg.sender, tokenBalance);\r\n    }\r\n\r\n    function callFunction(\r\n        address sender,\r\n        Account.Info memory account,\r\n        bytes memory data\r\n    ) public {\r\n        Operation memory operation = abi.decode(data, (Operation));\r\n\r\n        if (operation.direction == Direction.Deposit) {\r\n            supply(\r\n                operation.cToken,\r\n                operation.amountProvided + operation.amountBorrowed\r\n            );\r\n            enterMarket(operation.cToken);\r\n            borrow(operation.cToken, operation.amountBorrowed);\r\n        } else {\r\n            repayBorrow(operation.cToken, operation.amountBorrowed);\r\n            uint256 cTokenBalance = getcTokenBalance(operation.cToken);\r\n            redeem(operation.cToken, cTokenBalance);\r\n        }\r\n    }\r\n\r\n    function _initiateFlashloan(\r\n        address _solo, //address dydx\r\n        address _token,\r\n        address _cToken,\r\n        Direction _direction,\r\n        uint256 _amountProvided,\r\n        uint256 _amountBorrowed\r\n    ) internal {\r\n        ISoloMargin solo = ISoloMargin(_solo); //pointer dydx\r\n\r\n        //Get marketId from token address\r\n        uint256 marketId = _getMarketIdFromTokenAddress(_solo, _token);\r\n        //calculate repay amount(_amount + (2 wei))\r\n        //Approve transfer from\r\n        uint256 repayAmount = _getRepaymentAmountInternal(_amountBorrowed);\r\n        IERC20(_token).approve(_solo, repayAmount);\r\n\r\n        // 1. Withdraw $\r\n        // 2. Call callfunction(...)\r\n        // 3. Deposit back $\r\n        Actions.ActionArgs[] memory operations = new Actions.ActionArgs[](3);\r\n        operations[0] = _getWithdrawAction(marketId, _amountBorrowed);\r\n        operations[1] = _getCallAction(\r\n            //Encode MyCustomData for callFunction\r\n            abi.encode(\r\n                Operation({\r\n                    token: _token,\r\n                    cToken: _cToken,\r\n                    direction: _direction,\r\n                    amountProvided: _amountProvided,\r\n                    amountBorrowed: _amountBorrowed\r\n                })\r\n            )\r\n        );\r\n        operations[2] = _getDepositAction(marketId, repayAmount);\r\n\r\n        Account.Info[] memory accountInfos = new Account.Info[](1);\r\n        accountInfos[0] = _getAccountInfo();\r\n\r\n        solo.operate(accountInfos, operations);\r\n    }\r\n}\r\n",
  "sourcePath": "D:/ETH/yieldfarming-on-compound/contracts/YieldFarmer.sol",
  "compiler": {
    "name": "solc",
    "version": "0.5.7+commit.6da8b019.Emscripten.clang"
  },
  "schemaVersion": "3.3.4",
  "updatedAt": "2021-03-14T09:32:03.425Z",
  "networkType": "ethereum",
  "devdoc": {
    "methods": {}
  },
  "userdoc": {
    "methods": {}
  }
}